:02000002B0004C
:1040000000400B00CC770B00000006000C000502FE
:084010000401E50C00000000B2
:0440180080700B00A9
:10401C0009480A49884208B505D0094A824202D0AB
:10402C00121A02F0C1FE0748074A0021121A02F0C8
:10403C00E3FE014808BD00BF64E5032038770B00A0
:10404C00D0E50320D0E50320EDE7032070B5074E43
:10405C00074C02F03BFCA41BA4080025AC4200D189
:10406C0070BD56F8043B98470135F7E7E8760B002E
:10407C0010770B0000F034B908B500F07BF9BDE8FF
:10408C00084002F0DBBB00F02DBE00F02BBE00F0B0
:10409C0031BE0078B0FA80F04009704701230370FC
:1040AC00704710B504460121008802F090FCA088EE
:1040BC000121BDE8104002F08ABC38B50446008AE4
:1040CC0002F09EFC0546A08A02F09AFC40EA4500EC
:1040DC0038BD10B504460021008802F078FCA08899
:1040EC00012102F074FC642000F034FE2046FFF73E
:1040FC00D8FF10BD10B504460121008802F067FC02
:10410C00A088002102F063FC642000F023FE20460E
:10411C00FFF7C7FF10BD000070B5234A13780446A3
:10412C00002B36D1002934D02048036801330A2BE8
:10413C000360C4BF0123137005292AD10820FFF79F
:10414C00A2FF237803706378E6784370A37806EBBC
:10415C0003232679002206EB03260546466011460A
:10416C00134802F017FFB04228460CD100F0C2FDF4
:10417C00637863B90F4C2068FFF79FFF48B1206844
:10418C00FFF7A7FF05E0BDE8704000F0B3BD012BC1
:10419C0000D070BD074C2068FFF78FFF0328F8D0C4
:1041AC002068FFF7A7FFF4E7EBE50320F0E5032019
:1041BC00E4E50320ECE503202DE9F041144696B02C
:1041CC000F46054601F0DFFAC5E90374394607A826
:1041DC0000F0CCFF11AE21464FF000080CA8CDE941
:1041EC00058800F0C3FF3946304600F0BFFF254B71
:1041FC00254902944FF00402CDE9006305A80CABED
:10420C0001F0A4FC01F0A0F805AA0146304601F02B
:10421C00C7FD07AC304601F080F90FCC0CAF0FC7CF
:10422C00D4F800C0C7F800C00CAC0FCC37460FC791
:10423C003046C7F800C000F0FBFE04463046C4B957
:10424C0000F012FF0094ADF8120002230DF11202DF
:10425C000321284601F08CFA01F076F80022294659
:10426C0001F0FFF805A801F058F9284616B0BDE892
:10427C00F08100F0FBFECDF80080024610230721F0
:10428C00E7E700BF25410B0094700B001FB500241D
:10429C0001A8CDE90144ADF80C4001F091FE0548B0
:1042AC00406823462246214604B0BDE8104000F089
:1042BC00E1BC00BF0CE7032008B5012002F091F827
:1042CC000022BDE808401146104602F09AB808B525
:1042DC00122002F0A8FB07EE900AB8EEE70A08BD20
:1042EC002DE9F843FFF7D2FFFFF7E6FF1820FFF7A1
:1042FC00CAFE044658B302204FF003094FF00408DD
:10430C00052706260825C4E900090121C4E902870E
:10431C00C4E9046502F04AFB0121484602F046FB61
:10432C000021404602F042FB0021384602F03EFBE1
:10433C000021304602F03AFB0021284602F036FB01
:10434C000720002102F032FB2046FFF7AAFE064BA5
:10435C0014201C60FFF797FE18B1044A0449FFF7BC
:10436C002BFFBDE8F88300BFECE503209C700B002D
:10437C00C1700B0070B52C4B92B002AA03F1100661
:10438C00154618685968144603C40833B3422246CC
:10439C00F7D118689B88A38016222946206008A8AC
:1043AC0000F056F802F0FEF8014608A800F092F86A
:1043BC00014601901D4802F055FD019910B11B48B2
:1043CC0002F05AFD072002F01BFB012803D1184B09
:1043DC001868FFF77EFEFFF77AFFDFED167AB4EE72
:1043EC00E70AF1EE10FA14DD114C2668308902F060
:1043FC0007FB0546B08902F003FB40EA45000328A1
:10440C0007D12068FFF759FE032802D02068FFF778
:10441C0071FE094A00231370084A41F28830136078
:10442C0000F098FC12B070BDE6700B00E4E50320C0
:10443C00ECE503200000FA44EBE50320F0E5032053
:10444C000149024802F04BB8C7710B00D4E50320B8
:10445C00C0E900121E2282607047000070B509BAD4
:10446C0006460025C560016156F80C1B42680446DF
:10447C00154800F048F908223146134801F068FF4E
:10448C00114800F07CF96061C37C03F00F03C4E9B0
:10449C0006351844E2691302E36110F8012B01356B
:1044AC001A43042DE261F5D1084B22F00042B2FB15
:1044BC00F3F103FB1122E26120340549204600F0A0
:1044CC0029FC204670BD00BFF4E5032040420F00DC
:1044DC00FD700B00836891FBF3F1FFF7BFBF7047D2
:1044EC0010B5B8210446FFF7D2FD204610BD0000E0
:1044FC0010B5084B00F14C0203F1140153F8044BB6
:10450C0042F8044B8B42F9D10023036680F8483003
:10451C0010BD00BF03710B002DE9F04F85B0D0E941
:10452C00138A436D0193D0F85CB0836D01990293AB
:10453C001A465D46544647460023132B5BD882EA45
:10454C00010C0CEA040C8CEA020C0CF1B54C0CF5C9
:10455C001E3C0CF2991C03F00F0602364FEAB40411
:10456C0050F82660039406EBF766664403F1010CE1
:10457C005FFA8CFCBCF1500F2E440ED1019B2344EE
:10458C004365029B4644574419445A44C664076524
:10459C008165C26505B0BDE8F08F0CF00F0900EB2A
:1045AC008909BCF10F0FD9F808502C461CD903F11E
:1045BC000E0503F1090E05F00F050EF00F0E023576
:1045CC000EF1020E033303F00F0350F8255050F890
:1045DC002EE0023385EA0E0550F8233065405D402D
:1045EC004FEAF575C9F8085015463C460A46374659
:1045FC0003996346A1E7272B0CD882EA010C8CEABD
:10460C00040C0CF1DD4C0CF5B30C0CF5D74C0CF187
:10461C00210CA0E73B2B10D841EA040C0CEA020C4D
:10462C0001EA04064CEA060C0CF10F4C0CF5DD1CEF
:10463C000CF5E65C0CF11C0C8DE782EA010C8CEAA3
:10464C00040C0CF14A4C0CF5C50C0CF5834C0CF11C
:10465C00560C80E790F8483083F003020133DBB24C
:10466C000244402B10B5117280F8483004D1FFF78A
:10467C0053FF002380F8483010BD08B5026E01329C
:10468C000266FFF7E7FF012008BD10B58021044644
:10469C00FFF7E0FF94F84830382B4FF0000120462C
:1046AC00F6D1FFF7D7FF0021FFF7D4FF0021FFF76A
:1046BC00D1FF216E490FFFF7CDFF216EC1F347519A
:1046CC00FFF7C8FF216EC1F34731FFF7C3FF216E1F
:1046DC00C1F34711FFF7BEFF216EC900BDE81040C2
:1046EC0001F0F801FFF7B6BF10B50446FFF7CDFF98
:1046FC0004F14C03184660341A6812BA43F8042BC0
:10470C00A342F9D110BDF8B500F164051746044673
:10471C000E4640220021284602F06EFB402F28DD79
:10472C002046FFF7E5FE3744BE4206D0236816F854
:10473C00011B9B6820469847F6E72046FFF7D4FFFD
:10474C002B4600F1140250F8041B43F8041B904252
:10475C00F9D12046FFF7CCFE04F1A40615F8011B95
:10476C00236881F036019B6820469847B542F5D105
:10477C00F8BD3A463146284602F016FBE9E770B51B
:10478C000446FFF7B1FF04F1A406334600F114020E
:10479C0050F8041B43F8041B9042F9D12046FFF754
:1047AC00A7FE04F1640515F8011B236881F05C0178
:1047BC009B6820469847B542F5D104F1B8062368AA
:1047CC0015F8011B9B6820469847B542F7D1204647
:1047DC00BDE87040FFF788BF024B00225A60024AC6
:1047EC001A607047F4E5032020710B0008B5024BEA
:1047FC001B689B68019308BD7802030008B5024B47
:10480C001B681B6D019308BD7802030008B5024BB1
:10481C001B689B6D019308BD7802030008B5024B21
:10482C001B681B6E019308BD7802030008B5034B8F
:10483C001B68D3F89830019308BD00007802030080
:10484C0008B5034B1B68D3F8A830019308BD0000D2
:10485C007802030008B5034B1B68D3F8EC300193C6
:10486C0008BD00007802030008B5034B1B68D3F8A1
:10487C00F030019308BD00007802030008B5024B2C
:10488C001B685B6C019308BD4802030008B5024B22
:10489C001B68DB6C019308BD4802030008B5024B92
:1048AC001B685B6D019308BD4802030008B5024B01
:1048BC001B685B68019308BD1802030008B5024B26
:1048CC001B68DB68019308BD1802030008B5024B96
:1048DC001B685B69019308BD1802030008B5024B05
:1048EC001B689B6D019308BD1802030008B5024BB1
:1048FC001B685B6E019308BD1802030008B5024BE0
:10490C001B685B68019308BD2C02030008B5024BC1
:10491C001B689B68019308BD2C02030008B5024B71
:10492C001B68DB68019308BD2C02030008B5024B21
:10493C001B681B69019308BD2C02030008B5024BD0
:10494C001B685B69019308BD2C02030008B5024B80
:10495C001B681B6B019308BD2C02030008B5024BAE
:10496C001B681B6A019308BD2802030008B5024BA3
:10497C001B685B6A019308BD2802030008B5024B53
:10498C001B689B6A019308BD2802030008B5024B03
:10499C001B68DB6A019308BD2802030008B5024BB3
:1049AC001B681B6B019308BD2802030008B5024B62
:1049BC001B685B6B019308BD2802030008B5024B12
:1049CC001B681B6C019308BD2802030008B5024B41
:1049DC001B685B69019308BD6402030008B5024BB8
:1049EC001B689B68019308BD6802030008B5024B65
:1049FC001B68DB68019308BD6802030008B5024B15
:104A0C001B68DB69019308BD3002030008B5024B3B
:104A1C001B681B6A019308BD3002030008B5024BEA
:104A2C001B68DB68019308BD3C02030008B5024B10
:104A3C001B681B69019308BD3C02030008B5024BBF
:104A4C001B685B69019308BD3C02030008B5024B6F
:104A5C001B689B69019308BD3C02030008B5024B1F
:104A6C001B68DB69019308BD3C02030008B5024BCF
:104A7C001B681B6A019308BD3C02030008B5024B7E
:104A8C001B689B6A019308BD3C02030008B5024BEE
:104A9C001B681B6C019308BD3C02030008B5024B5C
:104AAC001B681B68019308BD4C02030008B5024B40
:104ABC001B681B69019308BD4C02030008B5024B2F
:104ACC001B685B69019308BD4C02030008B5024BDF
:104ADC001B689B69019308BD4C02030008B5024B8F
:104AEC001B68DB69019308BD4C02030008B5024B3F
:104AFC001B681B6A019308BD4C02030008B5024BEE
:104B0C001B685B68019308BD6002030008B5024B8B
:104B1C001B689B68019308BD6002030008B5024B3B
:104B2C001B68DB68019308BD6002030008B5024BEB
:104B3C001B689B69019308BD6002030008B5024B1A
:104B4C001B68DB69019308BD6002030008B5024BCA
:104B5C001B685B6B019308BD6002030008B5024B38
:104B6C001B681B6D019308BD6002030008B5024B66
:104B7C001B681B68019308BD2002030008B5024B9B
:104B8C001B685B68019308BD2002030008B5024B4B
:104B9C001B685B69019308BD2002030008B5024B3A
:104BAC001B689B6D019308BD2002030008B5034BE5
:104BBC001B68D3F88830019308BD00002002030065
:104BCC0008B5034B1B68D3F89430019308BD000063
:104BDC002002030008B5024B1B689B68019308BDBB
:104BEC004402030008B5024B1B685B69019308BDC6
:104BFC004402030008B5024B1B681B6B019308BDF4
:104C0C004402030008B5024B1B68DB6B019308BD23
:104C1C004402030008B5024B1B685B6C019308BD92
:104C2C004402030008B5024B1B685B68019308BD86
:104C3C004002030008B5024B1B689B68019308BD3A
:104C4C004002030008B5024B1B68DB68019308BDEA
:104C5C004002030008B5024B1B681B69019308BD99
:104C6C004002030008B5024B1B685B69019308BD49
:104C7C004002030008B5024B1B689B69019308BDF9
:104C8C004002030008B5024B1B68DB69019308BDA9
:104C9C004002030008B5024B1B681B6A019308BD58
:104CAC004002030008B5024B1B681B6B019308BD47
:104CBC004002030008B5024B1B685B6B019308BDF7
:104CCC004002030008B5024B1B681B6C019308BD26
:104CDC004002030008B5024B1B685B6C019308BDD6
:104CEC004002030008B5024B1B681B68019308BD0A
:104CFC001C02030008B5024B1B685B68019308BDDE
:104D0C001C02030008B5024B1B689B68019308BD8D
:104D1C001C02030008B5024B1B68DB68019308BD3D
:104D2C001C02030008B5024B1B68DB6A019308BD2B
:104D3C001C02030008B5024B1B681B6C019308BDD9
:104D4C001C02030008B5024B1B685B6C019308BD89
:104D5C001C0203000021FFF719BF70477047704712
:104D6C0070470000064B994210B500F10C0405D0B9
:104D7C00084601F0F1FE002808BF0024204610BDB3
:104D8C00D0720B00064B994210B500F10C0405D003
:104D9C00084601F0E1FE002808BF0024204610BDA3
:104DAC00D0720B00064B994210B500F10C0405D0E3
:104DBC00084601F0D1FE002808BF0024204610BD93
:104DCC00D0720B0010B568210446FFF760F920463D
:104DDC0010BD10B528210446FFF759F9204610BD27
:104DEC0010B530210446FFF752F9204610BD68215A
:104DFC00FFF74DB92821FFF74AB93021FFF747B922
:104E0C00F0B50025EC1C8C420DD86E1C445D875D02
:104E1C00974205D12644B14205D31D60601CF0BDFC
:104E2C0001342544EEE70020F9E70000024A03496B
:104E3C000A20FFF78BBE00BFC9480B0030710B0076
:104E4C0030B40D4611461A46036809682868D3E940
:104E5C000043A44630BC6047012A38B5044602D151
:104E6C000B68236003E0022A03D0032A0DD0002034
:104E7C0038BD08200D68FFF706F903460028F0D06E
:104E8C0095E8030083E80300EBE700680028EED008
:104E9C000821FFF7FCF8EAE710B58368044613B164
:104EAC00032201469847204610BD10B504465830E1
:104EBC00FFF7F2FF04F14800BDE8104001F0C4BA5E
:104ECC0010B54368013B0446436063B903689B68B3
:104EDC009847A368013BA3602BB923682046DB6885
:104EEC00BDE81040184710BDA0F13003DAB2092A12
:104EFC0001D818467047A0F16103052B01D857382B
:104F0C007047A0F14103052B94BF37384FF0FF30A9
:104F1C007047000010B500230370044B044618685A
:104F2C00FFF7B4FC01232370204610BDB4E6032028
:104F3C0010B5037804461BB1024B1868FFF7AEFCA2
:104F4C00204610BDB4E6032082B0034608684968C9
:104F5C006A4603C26A4603CA18601846596002B012
:104F6C00704708B582798B799A4206D1062201F0F6
:104F7C000BFFB0FA80F0400908BD0020FCE74FF0B1
:104F8C00FF33036083800020704708B50246002180
:104F9C0001604160FFF7F3FF9171104608BD0000FE
:104FAC0010B501230361054B024603F1100153F8C0
:104FBC00044B42F8044B8B42F9D110BDDE720B004E
:104FCC0010B50B460446B1B1012A01F110020AD109
:104FDC00014653F8040B41F8040B9342F9D1012319
:104FEC002361204610BD411E12F8010D01F8010F7E
:104FFC009A42F9D1F3E7102201F0FEFEF1E738B541
:10500C00044615461A46FFF7DBFFA581204638BD3E
:10501C0008B5026922B98089003818BF012008BD83
:10502C000249102201F0B0FEF6E700BFFE720B0041
:10503C000069704738B50C4614220021054601F072
:10504C00DBFE23691BB9A3892B80284638BD0123BD
:10505C002B7421462B4604F1100251F8040B43F833
:10506C00040B9142F9D1F0E780897047704708B57D
:10507C0002690B699A4206D1102201F085FEB0FA42
:10508C0080F0400908BD0020FCE7000001232DE959
:10509C00F3410361344B0C460646024603F1100102
:1050AC0053F8040B42F8040B8B42F9D144B324217E
:1050BC00204601F0F1FE04284FF0000523D1ADF895
:1050CC00045001AFA51C063415F8020CFFF70CFFB9
:1050DC00B0F1000812DB15F8010CFFF705FF0028F2
:1050EC000CDB023540EA0810A54207F8010BEBD1A6
:1050FC009DF8053033739DF80430737300233361CE
:10510C0002B0BDE8F0814FF010082421204601F0D8
:10511C00C3FEA84207D842460021304602B0BDE883
:10512C00F04101F069BEB8F1000FE9D0605DFFF706
:10513C00DBFE030615D4000108F1FF38C7B206F8F0
:10514C0008702421204601F0A7FE0135A84208D999
:10515C00605DFFF7C9FE40B20028A4BF384306F8D3
:10516C0008000135D1E700BFDE720B0013B5044611
:10517C000191FFF715FF20460199FFF787FF2046A5
:10518C0002B010BD38B54FF6FF73002504464380BE
:10519C000E22294605700571063001F02DFE04F132
:1051AC001400FFF7FDFE04F12800FFF7F9FE044997
:1051BC0004F13C0001F093F96565204638BD00BF51
:1051CC00C7710B0010B5D0E9063203EBC202934253
:1051DC00184606D0046824888C4203F10803F6D1E3
:1051EC0010BD0020FCE700002DE9F0410026066010
:1051FC00074628200C46FEF746FF051E05F10C0855
:10520C000FD00123C5E90133084B2B604046FFF753
:10521C00C7FE0FCC2E6285F8246046460FC6236865
:10522C003360C7E900853846BDE8F081A0720B00F9
:10523C0070B50025056006463020FEF724FF0446B5
:10524C0088B10123C0E90133094B03604FF6FF73AA
:10525C0083810E30FFF799FEC4E90655C4E9085561
:10526C00C4E90A55A57574600C343460304670BDC1
:10527C00BC720B0037B50D46044601A8FFF74AFE79
:10528C002A68D2F802302360D2F80630636001A895
:10529C00FFF74EFE204603B030BD30B5054687B053
:1052AC000C4601A8FFF736FE2A68236812881B8873
:1052BC009A420DD1294602A8FFF7DCFF214604A82B
:1052CC00FFF7D8FF04A902A8FFF74BFE044600B96C
:1052DC00002401A8FFF72CFE204607B030BD0000CB
:1052EC0010B504466420FEF7CEFE68B10023C0E979
:1052FC000033C0E90233C0E90433C0E9063303626A
:10530C00C362C363C364C365206020B90A4A0B49F6
:10531C000A20FFF71BFC0020FFF768FA20B1064AB1
:10532C0007490A20FFF712FC216806480022FFF704
:10533C009BFA204610BD00BFC9480B0030710B0012
:10534C006E710B00C5580B0010B50A4C2378BFF3D7
:10535C005B8FDB070CD42046FEF79BFE40B1064862
:10536C00FFF7BEFF2046FEF799FE044801F006FD4C
:10537C00014810BDACE60320B8E6032091550B00A4
:10538C0030B50368093B012B8DB004460D4611D88E
:10539C00FFF7DAFFA1880068FFF714FF034658B93E
:1053AC002022CDE904200B4A00920B4904AA32209A
:1053BC00FFF7D4FB0DB030BD6A6D002AFAD0D4E9EA
:1053CC00032105F14C00CDE90312AC6D04AA03A92D
:1053DC00A047EFE7B0710B0047710B0019B90A46F3
:1053EC000846FFF70BBAD1E900010022F9E738B5FE
:1053FC00141E4368054602DB62189A4200DD5C1AF3
:10540C002A68501801191A44521A01F0DBFC6A6818
:10541C00121B6A6038BD37B50A4604460D4601AB0F
:10542C00D0E90001FFF7ECFC024638B101992046A7
:10543C00FFF7DDFF29462046FFF7EDFF03B030BD37
:10544C0010B50C4629B90A460846BDE81040FFF7CE
:10545C00DDB901212046FFF7DEFFD4E9000100226F
:10546C00F3E738B504461546FFF7B8FF00280ADB0A
:10547C0029462046FFF7E4FF002804DBBDE838404E
:10548C000020FFF7CBB938BD38B500230446836044
:10549C0008200D46FEF7F7FD18B12B6803606B680A
:1054AC004360034BE360034B2060A360204638BD90
:1054BC004D4E0B00654E0B000B68036013B15A6820
:1054CC0001325A60704710B551F8043B044640F85D
:1054DC00043BFFF7F1FF23680BB9FFF7A7FC20464D
:1054EC0010BD10B551F8043B044640F8043BFFF7DF
:1054FC00E3FF204610BD10B551F8043B044640F8BC
:10550C00043BFFF7D9FF204610BD10B504460068D8
:10551C0008B1FFF7D5FC204610BD10B50446043089
:10552C00FFF7F3FF204610BD70B5D0E900530446D9
:10553C0005EBC306AE4204D0281DFFF7E6FF083585
:10554C00F8E72068FFF7D6FB204670BD70B5D0E9B0
:10555C000053044605EBC306AE4204D0281DFFF7EA
:10556C00D4FF0835F8E72068FFF7C4FB204670BD70
:10557C0010B504462430FFF7E9FF04F11800FFF7DB
:10558C00D3FF10BD70B5174B1C6854B304F1540015
:10559C00FFF782FC04F14400FFF77EFC04F13400B9
:1055AC00FFF77AFC04F12400FFF776FCD4E90653EC
:1055BC0005EBC306AE4204D0281DFFF7A6FF083545
:1055CC00F8E7A069FFF796FB04F10C00FFF7BEFFAC
:1055DC002046FFF7A9FF20466421BDE87040FEF786
:1055EC0056BD70BDB8E6032013B50023D1E90042C7
:1055FC00C1E900330368009304604368426001A86A
:10560C000193FFF782FF02B010BD826810B50AB992
:10561C0001F09EFABDE81040C368184738B50D1E5E
:10562C000446006803DDFFF76DFB18B938BDFFF7C2
:10563C0061FB00202060A5600120F7E708B58368B6
:10564C008B4202DAFFF7EAFF08BD0120FCE72DE9E7
:10565C00F0410F4641681D4619448368994204463F
:10566C00904612DC266862683E44D21B31467019A3
:10567C0001F0A8FB2A464146304601F095FB6368D1
:10568C002B4463600120BDE8F081FFF7C7FF0028C1
:10569C00E8D1F8E7F8B50D46D0E901139942044674
:1056AC0016460BDA276862687919521B481C01F000
:1056BC0089FB7E55636801336360F8BD0131FFF7E8
:1056CC00ADFF0028EED1F8E70A464168FFF7E2BFCC
:1056DC002DE9F74304461D460F4601AB90460A469A
:1056EC00D0E900019DF82890FFF78AFBAE1C636897
:1056FC000246B9F1000F26D128B333441B1AFF2BF5
:10570C0009D801992046FFF772FE616820463144A2
:10571C00FFF794FF18B9606803B0BDE8F0836A1C0A
:10572C000199D2B22046FFF7B5FF01993A460131F3
:10573C002046FFF7AFFF01992B4642460231204627
:10574C00FFF785FFE7E7F118FF29E4D82046FFF7BC
:10575C0075FF0028DFD0691CC9B22046FFF7B4FFE3
:10576C0039462046FFF7B0FF61682B464246E6E714
:10577C0030B49DF808501AB1029530BCFFF7A8BFA1
:10578C00406830BC70471FB50023C0E9003383600C
:10579C000622009301238DF80F2019460DF10F02FC
:1057AC000446FFF7E5FF204604B010BD8842F8B56B
:1057BC0004460D46164614D9904213D2A2F108069F
:1057CC00751AA1F108072C44B74218D01CB1314608
:1057DC002046FFF790FE301DFFF797FE083E083C71
:1057EC00F2E70CD0B5420AD01CB129462046FFF78F
:1057FC0082FE281DFFF789FE08350834F2E7F8BD54
:10580C00F7B5044646686846FFF775FED4E90173A0
:10581C009F4212DB0137002F29DDF800FFF762FAF7
:10582C000546F0B1D4E9001201EBC202FFF7BEFF4E
:10583C002068FFF75FFA2560A7602368626803EBB6
:10584C00C60603EBC202314606F10800FFF7AEFFB5
:10585C001EB169463046FFF74EFE63680133636044
:10586C00012501A8FFF751FE284603B0F0BD002525
:10587C00DEE7F8B5D0E9004305460F4604EBC30656
:10588C00A64205D039462046FFF707FD08B114B9EA
:10589C00F8BD0834F4E7201DFFF737FED5E90032D8
:1058AC0004F1080103EBC2022046FFF77FFF6B688F
:1058BC00013B6B60ECE700002DE9F04105468EB032
:1058CC0003A80C46FFF726FB2E68F31E0D2B3CD8C5
:1058DC00DFE813F00E0053003B00D1003B003B000F
:1058EC003B003B003B009B009B009B009B009B00F4
:1058FC0004A8FFF79DFC049BAA891A806968049888
:10590C0008310230FFF720FB04A906A8FFF7F3FDCE
:10591C0006A904F11800FFF773FF054607A8FFF767
:10592C00F4FD20230693B5B95D4B5E4900933220FC
:10593C002B4606AA0795FFF711F9049B29461888F0
:10594C00FEF774FF05A8FFF7E0FD03A8FFF7F0FAD8
:10595C000EB0BDE8F081544A0092002351490793E0
:10596C0006AA0120FFF7FAF8E36A002BEAD004A993
:10597C0004F12400FFF749FEE4E7A9892046FFF76C
:10598C0021FC06460028E0D00568D5E906324FF622
:10599C00FF71298003EBC2029A4203D053F8080B23
:1059AC004180F9E7D5E9037307EBC308B84504D088
:1059BC00381DFFF7AAFD0837F8E700232B61D5E95E
:1059CC00067307EBC308B84504D0381DFFF79DFDDF
:1059DC000837F8E70023EB61AB72E36B23B1314678
:1059EC0004F13400FFF711FE00232022CDE9062339
:1059FC002E4A00922B4906AA0120FFF7AFF8314638
:105A0C0004F11800FFF735FF9FE7A9892046FFF73F
:105A1C00D9FB002899D0E36C002B96D000230D2ED7
:105A2C00ADF8163001D0102E17D1002369681A4634
:105A3C0006258DF8153004918DF814200690DDE9BB
:105A4C00040109AB8DF81C60089583E80300236DF5
:105A5C0006A904F14400984777E70F2E01BF2B7A73
:105A6C00696803F0010208250FBFC3F340031A460F
:105A7C0019461D46DDE7A9892046FFF7A3FB014621
:105A8C0000283FF462AFE36D002B3FF45EAF6B6810
:105A9C00069306AA236E04F15400984755E700BFFD
:105AAC00C8710B0047710B00EE710B000B720B00F1
:105ABC0013B50B460246D0E900016C4684E803009E
:105ACC0093E8030082E8030094E8030083E80300F2
:105ADC0002B010BD38B505460C46FFF7E9FFAB68C0
:105AEC00A268AA60A360EB68E268EA60E36038BD74
:105AFC0070B504468CB00E4601921D46FFF742FB72
:105B0C002671019904F13C0000F0FDFC04F14C06F7
:105B1C00CDB1109B029502A904A80393FFF7B4FC26
:105B2C00002308A904A80A93FFF7D4FF314608A85C
:105B3C00FFF7D0FF08A8FFF7AFF904A8FFF7ACF9FF
:105B4C0020460CB070BD0695EAE700002DE9F04F39
:105B5C0087B01D46DDE9104380468B46924612996C
:105B6C0003930022682002910492FEF78CFA061E21
:105B7C0006F10C0918D001223746C6E90122029918
:105B8C00154A47F8202B039B00915A46514648462C
:105B9C00FFF7AEFF0FCD0FC72B683B600FCC06F1A4
:105BAC0034050FC523682B6004A94046CDE9049643
:105BBC00FFF71AFD05A8FFF7A8FCD8F800303BB991
:105BCC00064A07490A2007B0BDE8F04FFEF7BEBFF2
:105BDC0007B0BDE8F08F00BF84720B00C9480B0002
:105BEC0030710B008842F8B504460D46164614D9A0
:105BFC00904213D2A2F10806751AA1F108072C44A1
:105C0C00B74218D01CB131462046FFF76AFC301D54
:105C1C00FFF77BFC083E083CF2E70CD0B5420AD0FB
:105C2C001CB129462046FFF75CFC281DFFF76DFCD4
:105C3C0008350834F2E7F8BD70B50E1E054611DDC7
:105C4C00F000FFF74FF8044658B1D5E9001201EB0C
:105C5C00C202FFF7C7FF2868FFF74CF82C60AE6054
:105C6C00012070BD0024F6E773B50446456868460C
:105C7C00FFF737FCD4E90113994210DA2368626804
:105C8C0003EBC50503EBC202294605F10800FFF73B
:105C9C00A9FF8DB9636801336360012606E0013109
:105CAC002046FFF7C9FF06460028E7D101A8FFF7F9
:105CBC002CFC304602B070BD69462846FFF711FC3B
:105CCC00E8E78842F8B504460D46164614D99042CA
:105CDC0013D2A2F10806751AA1F108072C44B74299
:105CEC0018D01CB131462046FFF7EDFB301DFFF7F5
:105CFC000CFC083E083CF2E70CD0B5420AD01CB1B3
:105D0C0029462046FFF7DFFB281DFFF7FEFB083571
:105D1C000834F2E7F8BD70B50E1E054611DDF00033
:105D2C00FEF7E0FF044658B1D5E9001201EBC202C0
:105D3C00FFF7C7FF2868FEF7DDFF2C60AE6001207F
:105D4C0070BD0024F6E773B5044645686846FFF756
:105D5C00BAFBD4E90113994210DA2368626803EBA9
:105D6C00C50503EBC202294605F10800FFF7A9FFA0
:105D7C008DB9636801336360012606E0013120466A
:105D8C00FFF7C9FF06460028E7D101A8FFF7BDFBC6
:105D9C00304602B070BD69462846FFF794FBE8E731
:105DAC002DE9F04F1746A1B080460AA80E46FFF722
:105DBC00B1F83C68237953B939464046FFF783FB69
:105DCC000AA8FFF7B5F8404621B0BDE8F08F33685C
:105DDC00D3E9035305EBC303039304F1280A04F13D
:105DEC00140B039B9D4221D0D5F80090584609F125
:105DFC001401FFF73CF9B8B109F128015046FFF73F
:105E0C0036F988B12368D9F80020534033F47F4326
:105E1C000AD12022CDE915235E4A009215AA5E49CB
:105E2C003220FEF79BFEC7E70835DAE75046FFF74E
:105E3C00EFF860B95949012215A815ADFFF7C0F864
:105E4C000FCDD446ACE80F002B68CCF8003033688B
:105E5C00D3E9005305EBC30B5D45A94651466ED003
:105E6C0055F8080BFFF703F90028F5D004F1140AD4
:105E7C005046FFF7CDF888B9494B48491A8801328A
:105E8C0092B21A8015A8012315ADFFF7B8F80FCD03
:105E9C00D446ACE80F002B68CCF80030414B15937E
:105EAC002822002116A800F0A7FF514604A8FFF7EE
:105EBC00C1F804AB18AA0DF1200C186859681546E6
:105ECC0003C5083363452A46F7D11868286023793F
:105EDC008DF85830D9F800309B8AADF87430E36BEC
:105EEC001793314B0022A11D15A8CDE91E34FEF7E6
:105EFC00B1FC00287FF460AF01232370346839466D
:105F0C000C340DA8FFF7DFFA20460DA9FFF71BFF95
:105F1C0004460EA8FFF7F9FA002C7FF44DAF2023AE
:105F2C00CDE90D34214B00930DAA234677E7394672
:105F3C004046FFF7C8FA0CA8FFF7E7FA40E70BA8B2
:105F4C00FFF752F9514615A8FFF774F80B9A002386
:105F5C00143215A90120FEF773FC0028E7D135682F
:105F6C000BA90DA8FFF7BDFA28460DA9FFF77CFE7B
:105F7C0005460EA8FFF7C9FA002DD8D03268536831
:105F8C00126803F10053013B0CA802EBC309FFF7A5
:105F9C00BCFA6BE72A720B0047710B00EE720B0018
:105FAC00B0E6032003002C008D530B0055720B0040
:105FBC00024800230360FEF761BC00BFB4E6032077
:105FCC001FB50C23ADF8043003688DF80630037A46
:105FDC008DF80730436802930021437AADF80D1019
:105FEC0001A88DF80F108DF80C30FEF713FE05B0DC
:105FFC005DF804FB002240681146FEF74BBE002200
:10600C0040681146FEF756BE40680022FEF74ABEB5
:10601C004068002281F00101FEF734BE0023406885
:10602C001A461946FEF726BE002340681A46194642
:10603C00FEF718BE002240681146FEF70BBE002288
:10604C0040681146FEF7F6BD406800220221FEF7BB
:10605C00F9BD002340681A46FEF7E4BD024B03224B
:10606C005A60024A1A607047BCE6032018730B0092
:10607C007047F8B5064615460C468F18BC4206D03C
:10608C00336814F8011B9B6830469847F6E728469E
:10609C00F8BD007C0022FEF761BC007C0021FEF7FD
:1060AC0065BC007C0021FEF769BC007C0021FEF77A
:1060BC006DBC007C0021FEF771BC10B514210446A8
:1060CC00FDF7E5FF204610BD10B54FF47A7304467A
:1060DC0008460021C4E90113034B236020741146C8
:1060EC00FEF76CFC204610BD54730B00704710B5C6
:1060FC0018210446FDF7CBFF204610BDF0B5037DFB
:10610C00062B8DB00E4600F104074FF0000412D0A0
:10611C0000F1080515F8011D0A22304600F043F97C
:10612C00AF42044419D0002CF4D02E21304600F09C
:10613C0037F90444EEE72F236A4639460A208DF8D6
:10614C000040FEF743FC684600F09EFE33680246B2
:10615C00DB68694630469847044620460DB0F0BDD2
:10616C0010B5054B0446112240F8043B002100F009
:10617C0043FE204610BD00BF7C730B000346074A4C
:10618C0010B543F8042B01F1100251F8044B43F8FD
:10619C00044B9142F9D10A781A7010BD7C730B0034
:1061AC0010B59DF8084044EA032343EA024242EA50
:1061BC00016104234160037510BD000007B5064B57
:1061CC000360CB7800938B784A780978FFF7E8FF67
:1061DC0003B05DF804FB00BF7C730B00014B024A5B
:1061EC001A607047C4E6032088730B0000234068D4
:1061FC001A46FEF717BD406800220221FEF722BDA9
:10620C00002240681146FEF715BD00224068114679
:10621C00FEF720BD002340681A461946FEF722BD42
:10622C00002340681A461946FEF724BD4068002139
:10623C00FEF748BD40680021FEF74CBD40680022C7
:10624C0081F00101FEF71EBD40680022FEF72ABD59
:10625C00002240681146FEF72DBD00224068114611
:10626C00FEF718BD2DE9F04395B014460D460746D0
:10627C00FFF776FF00211C220DA8009100F0BCFD59
:10628C0040230C9320466B460CAA0021FEF7AEFB74
:10629C00044600284BD1024601216868FEF7DAFC5F
:1062AC000221804622466868FEF7D4FC009E814697
:1062BC002146002E3BD0002939D17368022B03D024
:1062CC000A2B11D0F669F4E7B8F1000FFAD0716916
:1062DC0006A8043107ADFFF771FF0FCD3C1D0FC4AD
:1062EC002B6823704146EDE7B9F1000FEAD07469D1
:1062FC00102201A800F080FD06238DF8143001ADAA
:10630C0004F108031834186859682A4603C2083384
:10631C00A3421546F7D101A906A807ADFFF72EFF3A
:10632C000FCD3C1D0FC42B6823704946CAE700985B
:10633C00FEF754FB384615B0BDE8F083024B034A18
:10634C001A6000225A607047C8E6032094730B0051
:10635C00F8B506460D468F180024BD420CD03368A4
:10636C0015F8011B9B6830469847031E01DB1C4443
:10637C00F3E7002C08BF1C462046F8BD13B50446B5
:10638C00084659B1019100F07FFD23680199DB6843
:10639C000246204602B0BDE81040184702B010BDBE
:1063AC0003689B68184730B58BB00023012A8DF821
:1063BC00243098BF0A2209AC0D46B1FBF2F101FB67
:1063CC00125303F0FF03092B94BF30333733DBB286
:1063DC00AA4204F8013DEFD92146FFF7CFFF0BB0DD
:1063EC0030BD10B50446FEF7A1FB844208D01CB1A9
:1063FC00BDE81040FEF78ABBBDE81040FEF78EBB2F
:10640C0010BD70B505460E461446FEF78FFB50B115
:10641C0044EA062444EA0540FEF770FBBDE87040F0
:10642C00E720FEF78BBB70BD014B00229A607047D2
:10643C00D0E6032010B5044608462170FEF7DEFABC
:10644C0000236360204610BD10B504460068FEF7BB
:10645C0051FC204610BD10B50446006808B1FEF78B
:10646C0049FC0023C4E90133236010BD38B5044650
:10647C000D4600680131FEF745FC10B1C4E900057A
:10648C00012038BD10B50368044623B143688B4224
:10649C0001D3012010BD2046FFF7E8FF0028F9D0FA
:1064AC00A368002BF5D122681370F2E737B50D46BF
:1064BC00114601920446FFF7E5FF019A28B92046E0
:1064CC00FFF7C9FF204603B030BDA2602946206803
:1064DC0000F06AFC2268A3680021D154F2E7002383
:1064EC0013B5C0E9003304468360037341B1084619
:1064FC00019100F0C9FC019902462046FFF7D6FF36
:10650C00204602B010BD13B5044659B1084601919E
:10651C0000F0BAFC019902462046FFF7C7FF20465F
:10652C0002B010BDFFF797FFF9E70000054B022200
:10653C001A60054B054A9A600020C3E90000FEF77B
:10654C001DBB00BFECE60320E0E603200000FFFFCC
:10655C0008B50020FEF74EFB28B1FEF743FB80F098
:10656C000100C0B208BD0120FCE710B50020FEF709
:10657C00B5F90446A0B9FEF7F9FA012810D1204666
:10658C00FEF70CFB60B9FFF7E3FF10B9FEF722FB37
:10659C00F9E7FFF7DDFFBDE810400020FEF79EB9DC
:1065AC00204610BD1FB5FFF7E0FF10220021684602
:1065BC0000F022FC00216846FEF798F9009805B01F
:1065CC005DF804FB024B1A68024B1A60704700BF5F
:1065DC0064E50320F0E6032070474174704708B56A
:1065EC00007CFEF74BFA20EAE07008BD08B5007C91
:1065FC00FEF71CFA20EAE07008BD08B5007CFEF737
:10660C0025FA40EAE07008BD08B5007CFEF716FAE2
:10661C0040EAE07008BD007CFEF720BA37B5457C37
:10662C0004462DB1207C03B0BDE83040FEF7F6B92E
:10663C00007C0191FEF722FA00280199F2DC284631
:10664C0003B030BD10B514210446FDF720FD2046E3
:10665C0010BD000010B54FF47A730446084611467D
:10666C000022C4E90123044B2360012320746374CA
:10667C00FEF70CFA204610BDEC730B00417470470A
:10668C007047704708B50021007CFEF71FFA40EAFE
:10669C00E07008BD08B50121007CFEF717FA40EA4E
:1066AC00E07008BD08B5007CFEF708FA20EAE0703F
:1066BC0008BD08B5007CFEF7F9F920EAE07008BDCA
:1066CC0013B50446007C0191FEF7F8F900280199F6
:1066DC0001DC607C20B1207CFEF700FA20EAE0703F
:1066EC0002B010BD007CFEF701BA10B514210446AF
:1066FC00FDF7CDFC204610BD10B54FF47A7304465F
:10670C0008460021C4E90113044B236001232074C3
:10671C0063741146FEF7C2F9204610BD1C740B00C1
:10672C0010B514220446002100F066FB204610BD73
:10673C0010B50F4C88B003A8FFF7F2FF2178BFF318
:10674C005B8F11F001010FD120460191FDF7A1FCE7
:10675C00019948B103AA0748FFF7CEFF2046FDF781
:10676C009DFC054800F00AFB024808B010BD00BFB4
:10677C00F4E60320F8E603208D660B000022406847
:10678C001146FEF767BA002240681146FEF782BA3E
:10679C00002240681146FEF78DBA40680022FEF7D1
:1067AC0081BA4068002281F00101FEF76BBA002328
:1067BC0040681A461946FEF75DBA002340681A462F
:1067CC001946FEF74FBA002240681146FEF732BA5E
:1067DC00406800220221FEF735BA002340681A46B1
:1067EC00FEF720BA024B04225A60024A1A60704724
:1067FC000CE703204C740B00014B1860704700BF72
:10680C0068E5032008B50B4B43B1FFF791FF036814
:10681C001B699847002801DDAFF30080064B43B19C
:10682C0000F070F903681B699847002801DDAFF38D
:10683C00008008BD000000000000000008B5FFF754
:10684C00E1FFFEF743F8014B186008BD28E7032071
:10685C000548064A064908B5121A00F0A5FA054B78
:10686C00054A1A6008BD00BF00F4032004F403209D
:10687C0034770B0000F403201E1C279A07B5002365
:10688C0000931A466FF07701FEF79AF903B05DF8A2
:10689C0004FB000007B543880A2B08D0502B0BD102
:1068AC00094B1B684BB103B05DF804EB1847FFF7BD
:1068BC00E5FF03B05DF804FB002300931A466FF06C
:1068CC007701FEF77DF9F4E718E7032010B51248BD
:1068DC000021FEF737FA114B1A68114B9A42114BF3
:1068EC000CBF012200221A7001D0FFF7B1FFFDF797
:1068FC00DDFF044600F088FA0B4B13B12046AFF3D2
:10690C00008000210848FEF77DF9BDE810400748DB
:10691C000021FEF74BB900BF05680B0000F4032003
:10692C001E1C279A14E7032000000000A1680B002E
:10693C00232813B502D9002002B010BDA0F10B031F
:10694C00022B1AD8174C2178BFF35B8F11F0010181
:10695C000BD120460191FDF79CFB019928B11248FF
:10696C00FFF768FD2046FDF799FB0F4B1878FEF7F3
:10697C004DF80028DFD10120DEE7012809D800F00E
:10698C0081F80021007CFEF711F880F00100C0B204
:10699C00D2E709380128EED800F0B4F8007CFEF7F5
:1069AC0065F8F2E71CE7032020E70320232838B51D
:1069BC0004460D460AD8FF2908D0FFF7B9FF28B1C5
:1069CC0029462046BDE83840FDF7A0BF38BD38B594
:1069DC0004460D46FDF7A2FFFF2810D0062804D868
:1069EC004D2323FA00F0C30709D42046FFF7A0FF7C
:1069FC0028B129462046BDE83840FDF797BF38BD81
:106A0C0010B50446FDF78AFF031FDBB2012B08D932
:106A1C002046FFF78DFF20B12046BDE81040FDF762
:106A2C008DBF002010BD0D2810B504469CBF0E3440
:106A3C00A4B22046FFF77CFF50B103212046FDF79E
:106A4C005DFF032804D12046BDE81040FDF77EBF52
:106A5C00002010BD7047000038B5202514230446D3
:106A6C000360856005610649284600F06FF804490B
:106A7C006060284600F06AF8E060204638BD00BF30
:106A8C0080740B0030B50E4D2978BFF35B8F11F07D
:106A9C00010487B011D12846FDF7FBFA68B101A8B3
:106AAC00FFF7DAFF01AA21460648FFF70DFB28463F
:106ABC00FDF7F4FA044800F061F9024807B030BD64
:106ACC002CE7032030E70320616A0B0070470000BD
:106ADC0038B5044614252A46002100F08DF925808E
:106AEC004025074925812846258200F02FF80449C6
:106AFC006060284600F02AF8E060204638BD00BFF0
:106B0C0080740B0030B50E4D2978BFF35B8F11F0FC
:106B1C00010487B011D12846FDF7BBFA68B101A872
:106B2C00FFF7D6FF01AA21460648FFF793FD28463A
:106B3C00FDF7B4FA044800F021F9024807B030BD63
:106B4C0044E7032048E70320D96A0B00FDF79DBA00
:106B5C0008B5FEF7E7F80000014900F0F9B800BFEE
:106B6C009C740B007FB500241023CDE9023403681C
:106B7C0015469E6912686B46CDE90044B0479DF8F6
:106B8C00043003F00603062B03BF009B2B6001208F
:106B9C00204604B070BD0098904214BF012006201E
:106BAC007047000010B5034B0360044600F0CDF8AD
:106BBC00204610BDDC740B0010B50446FFF7F2FF45
:106BCC0020460821FDF763FA204610BD2DE9F0415F
:106BDC001F46DDE90834DDF8188098450646154651
:106BEC0007D1079900F0B4F818B165710020BDE821
:106BFC00F0813946304600F0ABF80028F6D001237E
:106C0C00C4F800802571A371F0E738B515461C4611
:106C1C0000F09EF820B10823E36006232560237161
:106C2C0038BD73B505460C4601921E4600F090F82F
:106C3C0050B9032E08D82368019A5B69294620466F
:106C4C0002B0BDE87040184702B070BD10B5034BE0
:106C5C0003600446FFF7A6FF204610BD3C750B00F1
:106C6C0010B50446FFF7F2FF20460C21FDF70FFA92
:106C7C00204610BDF7B5089F974205460E461446B0
:106C8C000AD0A86802680897156A31462246AC46B5
:106C9C0003B0BDE8F04060471946019300F058F886
:106CAC00019B0028EDD0062003B0F0BD2DE9F14F7B
:106CBC000D461946DDE90A4BDDE90CA6814617465F
:106CCC00984600F045F890B1002D3460377109DB1F
:106CDC0061198A450CBF06210121B171002001B058
:106CEC00BDE8F08F0235F9D10123B371F6E75445B5
:106CFC0006D15946484600F02BF808B17771EDE7FC
:106D0C00D9F808000368CDE90CA6CDE90A4BDC697B
:106D1C003A4643462946A44601B0BDE8F04F6047C9
:106D2C002DE9F04107460C4615461E46FFF76DFF50
:106D3C0048B9B86803689F692A4633462146BC4661
:106D4C00BDE8F0416047BDE8F08170470020704716
:106D5C00814208B50ED0406803782A2B0CD04968C4
:106D6C000B782A2B08BF013100F07CF8B0FA80F0C8
:106D7C00400908BD0120FCE70020FAE7002301468A
:106D8C001A46184600F010B910B501390244904269
:106D9C0001D1002005E0037811F8014FA34201D086
:106DAC00181B10BD0130F2E70A44914200F1FF3389
:106DBC0000D1704710B511F8014B03F8014F914207
:106DCC00F9D110BD884210B501EB020402D98442FE
:106DDC00234607D8431EA14208D011F8012B03F813
:106DEC00012FF8E7024401468A4200D110BD13F886
:106DFC00014D02F8014DF7E702440346934200D1DE
:106E0C00704703F8011BF9E738B5104B1D68AB6BE5
:106E1C000446B3B91820FDF765FF0246A86320B9F4
:106E2C000B4B0C484221FDF785FF0B490B4BC0E97E
:106E3C0000130B4B83600B23838100210120C2E9DB
:106E4C000401AB6B00221C615A6138BD68E503205C
:106E5C0075750B008C750B000E33CDAB34126DE6D3
:106E6C00ECDE050010F8012B11F8013B012A28BFBC
:106E7C009A42F7D0D01A7047034611F8012B03F849
:106E8C00012B002AF9D17047034613F8012B002A75
:106E9C00FBD1181A0138704710B5024601448A42DA
:106EAC00134603D01C780132002CF8D1181A10BDEF
:106EBC002DE9F043364F86460D46284615F8014B12
:106ECC00E65D16F00806F8D12D2C2FD12C78012672
:106EDC00851C002B57D0102B09D1302C07D12878CA
:106EEC0000F0DF00582849D16C78102302354FF0A0
:106EFC00FF380027B8FBF3F803FB08F96FEA090920
:106F0C003846A4F1300CBCF1090F14D86446A342E6
:106F1C0022DD002F1DDB80451BD301D1A14518DBE1
:106F2C0000FB0340012715F8014BEAE72B2C04BFAB
:106F3C002C78851CCDE7A4F1410CBCF1190F01D8BC
:106F4C00373CE4E7A4F1610CBCF1190F04D8573CB1
:106F5C00DDE74FF0FF37E6E7002F07DA2223CEF804
:106F6C0000304FF0FF3032B9BDE8F08306B140423B
:106F7C00002AF9D007B1691E1160F5E73024002B07
:106F8C00B5D10823B3E7302CA9D00A23AFE700BF53
:106F9C00E6750B0013460A46014602480068FFF7E7
:106FAC0087BF00BF68E503202DE9F843DFF8B88000
:106FBC000646D8F800001F460D46914600F056F8DC
:106FCC00254B1C6834B9254C1C60254B13B11B6830
:106FDC00C4F8883063681F2B07DDD8F8000000F078
:106FEC0047F84FF0FF30BDE8F8834EB3D4F8880073
:106FFC0088B91C4B23B9D8F8000000F038F8F0E73A
:10700C004FF48470FDF76EFE0028F4D00023C0E925
:10701C004033C4F88800636840F8239001229A40FA
:10702C0000EB8301D0F800311343C0F80031022E7D
:10703C00C1F8807002BFD0F804311343C0F804319A
:10704C006368D8F800005A1C0233626044F823507D
:10705C0000F00EF80020C6E7E8E703205CE7032009
:10706C0000000000F14C0B00CCE50320704770478A
:10707C00704700001D400B0059400B0081400B0075
:10708C0085400B0000000000636F6D6D616E640045
:10709C0061643731326366312D633731382D346397
:1070AC0031392D626566392D66313731306337637E
:1070BC00656439640061643731326366302D63373F
:1070CC0031382D346331392D626566392D6631378F
:1070DC003130633763656439640048614E734F6DBA
:1070EC0050724F4D657A64613132314C535439379B
:1070FC00002530366C64000123456789ABCDEFFE6B
:10710C00DCBA9876543210F0E1D2C30000000000D3
:10711C0000000000EB440B00ED440B0087460B0015
:10712C005D630B00417373657274696F6E466169C0
:10713C006C7572652066616C736500776972696E37
:10714C00672E626C6500537461727420646973639A
:10715C006F766572696E67207365727669636573A5
:10716C002E00417373657274696F6E4661696C753C
:10717C0072652068616C5F626C655F737461636BD0
:10718C005F696E6974286E756C6C70747229203D21
:10719C003D2053595354454D5F4552524F525F4E0B
:1071AC004F4E4500506565722064657669636520B5
:1071BC006973206D697373696E6721004661696C30
:1071CC00656420746F20617070656E6420706565F5
:1071DC00722043656E7472616C20646576696365B8
:1071EC002E00436F6E6E6563746564206279204374
:1071FC00656E7472616C206465766963652E0044FB
:10720C006973636F6E6E6563746564206279207256
:10721C00656D6F7465206465766963652E004475D1
:10722C00706C696361746564206368617261637416
:10723C00657269737469632063616E6E6F7420622A
:10724C00652061646465642E004661696C65642028
:10725C00746F20617070656E64206C6F63616C205C
:10726C0063686172616374657269737469632E001B
:10727C0000000000000000006D4D0B00D14D0B0014
:10728C00B74E0B00FB4D0B00714D0B0000000000C6
:10729C0000000000694D0B00DF4D0B006B4D0B0027
:1072AC00014E0B00914D0B0000000000000000008F
:1072BC00674D0B00ED4D0B007D550B00074E0B0081
:1072CC00B14D0B00000000000000000000000000A9
:1072DC000000FB349B5F8000008000100000000069
:1072EC0000007BE327747BF815ACDD49A913000083
:1072FC0072F5FB349B5F80000080001000000000E2
:10730C000000000000000000000000005F600B00A7
:10731C0055600B004B600B0041600B0035600B009F
:10732C0029600B0039620B0041620B001D600B00E1
:10733C0015600B000B600B0001600B0071620B0001
:10734C0000000000000000007D600B00C7600B0017
:10735C009F600B007F600B00A7600B00AF600B0001
:10736C00B7600B00BF600B000000000000000000C5
:10737C0009610B00F9600B00FB600B006170700081
:10738C000000000000000000F9610B0003620B001C
:10739C000D620B0017620B0021620B002D620B00BB
:1073AC0039620B0041620B0049620B0055620B0005
:1073BC005D620B0067620B0071620B0025592D2575
:1073CC006D2D25645425483A254D3A2553257A00D0
:1073DC0061736374696D65000000000000000000BB
:1073EC00E5650B0051660B0029660B005D630B0015
:1073FC00F9650B0015660B0007660B0023660B0086
:10740C00E7650B00EB650B000000000000000000BE
:10741C008F660B00F7660B00CD660B005D630B00EF
:10742C00BF660B0091660B00A1660B00F1660B00AA
:10743C00B1660B0089660B00000000000000000024
:10744C00E7670B00DD670B00D3670B0089670B0048
:10745C00C7670B00BB670B0039620B0041620B0066
:10746C00AF670B00A7670B009D670B0093670B00C2
:10747C0071620B0000537431395F53705F6D616B37
:10748C00655F7368617265645F746167000000001A
:10749C00DC740B0081740B003C750B00B0740B009A
:1074AC0060750B004E31305F5F637878616269768E
:1074BC003131375F5F636C6173735F747970655FD3
:1074CC00696E666F4500000000000000A4740B009C
:1074DC00B16B0B00C56B0B00596D0B00596D0B009C
:1074EC002F6C0B00716B0B00176C0B00D96B0B0026
:1074FC00A36B0B003C750B000C750B00A4740B00FC
:10750C004E31305F5F637878616269763132305F1B
:10751C005F73695F636C6173735F747970655F69C6
:10752C006E666F45000000000000000000750B0047
:10753C00596C0B006D6C0B00596D0B00596D0B00E9
:10754C002F6C0B00716B0B002D6D0B00B96C0B00CD
:10755C00816C0B00DC740B0068750B005374397470
:10756C007970655F696E666F005245454E54206DAB
:10757C00616C6C6F6320737563636565646564002F
:10758C002F746D702F6A656E6B696E732D47434354
:10759C002D31302D706970656C696E652D34385FD6
:1075AC0032303230313132345F313630363138307E
:1075BC003633392F7372632F6E65776C69622F6E59
:1075CC0065776C69622F6C6962632F7374646C6984
:1075DC00622F72616E642E63000020202020202018
:1075EC002020202828282828202020202020202067
:1075FC002020202020202020202088101010101067
:10760C0010101010101010101010040404040404B6
:10761C000404040410101010101010414141414199
:10762C0041010101010101010101010101010101FE
:10763C00010101010110101010101042424242428F
:10764C0042020202020202020202020202020202CE
:10765C0002020202021010101020000000000000B4
:10766C00000000000000000000000000000000000E
:10767C0000000000000000000000000000000000FE
:10768C0000000000000000000000000000000000EE
:10769C0000000000000000000000000000000000DE
:1076AC0000000000000000000000000000000000CE
:1076BC0000000000000000000000000000000000BE
:1076CC0000000000000000000000000000000000AE
:1076DC000000000000000000000000004D440B0002
:1076EC00E5470B00BD5F0B0069600B00E9610B0007
:1076FC0049630B0035640B0039650B00D1650B0039
:04770C00F1670B0016
:10771000040000001400000003000000474E550064
:10772000ED88444FD288B3B6A53F285E0E1F267A57
:0477300012E623D169
:047734000000000051
:10773800DC730B006CE50320000000000000000073
:107748000000000000000000000000000000000031
:107758000000000000000000000000000000000021
:107768000000000000000000000000000000000011
:107778000000000000000000000000000000000001
:1077880000000000000000000000000000000000F1
:0C7798000000000000000000ECE70320EF
:1077A400FFFFFFFF00000102030405060708090AA2
:1077B4000B0C0D0E0F101112131415161718191A9D
:0877C4001B1C1D1E1F202800E4
:0477CC0078563412A5
:04000003B000401CED
:00000001FF
